{
  "_format": "hh-sol-artifact-1",
  "contractName": "LMSCertificateNFT",
  "sourceName": "contracts/erc721_certificate.sol",
  "abi": [
    {
      "inputs": [],
      "stateMutability": "nonpayable",
      "type": "constructor"
    },
    {
      "inputs": [
        {
          "internalType": "address",
          "name": "sender",
          "type": "address"
        },
        {
          "internalType": "uint256",
          "name": "tokenId",
          "type": "uint256"
        },
        {
          "internalType": "address",
          "name": "owner",
          "type": "address"
        }
      ],
      "name": "ERC721IncorrectOwner",
      "type": "error"
    },
    {
      "inputs": [
        {
          "internalType": "address",
          "name": "operator",
          "type": "address"
        },
        {
          "internalType": "uint256",
          "name": "tokenId",
          "type": "uint256"
        }
      ],
      "name": "ERC721InsufficientApproval",
      "type": "error"
    },
    {
      "inputs": [
        {
          "internalType": "address",
          "name": "approver",
          "type": "address"
        }
      ],
      "name": "ERC721InvalidApprover",
      "type": "error"
    },
    {
      "inputs": [
        {
          "internalType": "address",
          "name": "operator",
          "type": "address"
        }
      ],
      "name": "ERC721InvalidOperator",
      "type": "error"
    },
    {
      "inputs": [
        {
          "internalType": "address",
          "name": "owner",
          "type": "address"
        }
      ],
      "name": "ERC721InvalidOwner",
      "type": "error"
    },
    {
      "inputs": [
        {
          "internalType": "address",
          "name": "receiver",
          "type": "address"
        }
      ],
      "name": "ERC721InvalidReceiver",
      "type": "error"
    },
    {
      "inputs": [
        {
          "internalType": "address",
          "name": "sender",
          "type": "address"
        }
      ],
      "name": "ERC721InvalidSender",
      "type": "error"
    },
    {
      "inputs": [
        {
          "internalType": "uint256",
          "name": "tokenId",
          "type": "uint256"
        }
      ],
      "name": "ERC721NonexistentToken",
      "type": "error"
    },
    {
      "anonymous": false,
      "inputs": [
        {
          "indexed": true,
          "internalType": "address",
          "name": "owner",
          "type": "address"
        },
        {
          "indexed": true,
          "internalType": "address",
          "name": "approved",
          "type": "address"
        },
        {
          "indexed": true,
          "internalType": "uint256",
          "name": "tokenId",
          "type": "uint256"
        }
      ],
      "name": "Approval",
      "type": "event"
    },
    {
      "anonymous": false,
      "inputs": [
        {
          "indexed": true,
          "internalType": "address",
          "name": "owner",
          "type": "address"
        },
        {
          "indexed": true,
          "internalType": "address",
          "name": "operator",
          "type": "address"
        },
        {
          "indexed": false,
          "internalType": "bool",
          "name": "approved",
          "type": "bool"
        }
      ],
      "name": "ApprovalForAll",
      "type": "event"
    },
    {
      "anonymous": false,
      "inputs": [
        {
          "indexed": false,
          "internalType": "uint256",
          "name": "_fromTokenId",
          "type": "uint256"
        },
        {
          "indexed": false,
          "internalType": "uint256",
          "name": "_toTokenId",
          "type": "uint256"
        }
      ],
      "name": "BatchMetadataUpdate",
      "type": "event"
    },
    {
      "anonymous": false,
      "inputs": [
        {
          "indexed": false,
          "internalType": "uint256",
          "name": "_tokenId",
          "type": "uint256"
        }
      ],
      "name": "MetadataUpdate",
      "type": "event"
    },
    {
      "anonymous": false,
      "inputs": [
        {
          "indexed": true,
          "internalType": "address",
          "name": "from",
          "type": "address"
        },
        {
          "indexed": true,
          "internalType": "address",
          "name": "to",
          "type": "address"
        },
        {
          "indexed": true,
          "internalType": "uint256",
          "name": "tokenId",
          "type": "uint256"
        }
      ],
      "name": "Transfer",
      "type": "event"
    },
    {
      "inputs": [],
      "name": "admin",
      "outputs": [
        {
          "internalType": "address",
          "name": "",
          "type": "address"
        }
      ],
      "stateMutability": "view",
      "type": "function"
    },
    {
      "inputs": [
        {
          "internalType": "address",
          "name": "to",
          "type": "address"
        },
        {
          "internalType": "uint256",
          "name": "tokenId",
          "type": "uint256"
        }
      ],
      "name": "approve",
      "outputs": [],
      "stateMutability": "nonpayable",
      "type": "function"
    },
    {
      "inputs": [
        {
          "internalType": "address",
          "name": "owner",
          "type": "address"
        }
      ],
      "name": "balanceOf",
      "outputs": [
        {
          "internalType": "uint256",
          "name": "",
          "type": "uint256"
        }
      ],
      "stateMutability": "view",
      "type": "function"
    },
    {
      "inputs": [
        {
          "internalType": "uint256",
          "name": "tokenId",
          "type": "uint256"
        }
      ],
      "name": "getApproved",
      "outputs": [
        {
          "internalType": "address",
          "name": "",
          "type": "address"
        }
      ],
      "stateMutability": "view",
      "type": "function"
    },
    {
      "inputs": [
        {
          "internalType": "address",
          "name": "owner",
          "type": "address"
        },
        {
          "internalType": "address",
          "name": "operator",
          "type": "address"
        }
      ],
      "name": "isApprovedForAll",
      "outputs": [
        {
          "internalType": "bool",
          "name": "",
          "type": "bool"
        }
      ],
      "stateMutability": "view",
      "type": "function"
    },
    {
      "inputs": [
        {
          "internalType": "address",
          "name": "to",
          "type": "address"
        },
        {
          "internalType": "string",
          "name": "tokenURI",
          "type": "string"
        }
      ],
      "name": "mintCertificate",
      "outputs": [
        {
          "internalType": "uint256",
          "name": "",
          "type": "uint256"
        }
      ],
      "stateMutability": "nonpayable",
      "type": "function"
    },
    {
      "inputs": [],
      "name": "name",
      "outputs": [
        {
          "internalType": "string",
          "name": "",
          "type": "string"
        }
      ],
      "stateMutability": "view",
      "type": "function"
    },
    {
      "inputs": [],
      "name": "nextTokenId",
      "outputs": [
        {
          "internalType": "uint256",
          "name": "",
          "type": "uint256"
        }
      ],
      "stateMutability": "view",
      "type": "function"
    },
    {
      "inputs": [
        {
          "internalType": "uint256",
          "name": "tokenId",
          "type": "uint256"
        }
      ],
      "name": "ownerOf",
      "outputs": [
        {
          "internalType": "address",
          "name": "",
          "type": "address"
        }
      ],
      "stateMutability": "view",
      "type": "function"
    },
    {
      "inputs": [
        {
          "internalType": "address",
          "name": "from",
          "type": "address"
        },
        {
          "internalType": "address",
          "name": "to",
          "type": "address"
        },
        {
          "internalType": "uint256",
          "name": "tokenId",
          "type": "uint256"
        }
      ],
      "name": "safeTransferFrom",
      "outputs": [],
      "stateMutability": "nonpayable",
      "type": "function"
    },
    {
      "inputs": [
        {
          "internalType": "address",
          "name": "from",
          "type": "address"
        },
        {
          "internalType": "address",
          "name": "to",
          "type": "address"
        },
        {
          "internalType": "uint256",
          "name": "tokenId",
          "type": "uint256"
        },
        {
          "internalType": "bytes",
          "name": "data",
          "type": "bytes"
        }
      ],
      "name": "safeTransferFrom",
      "outputs": [],
      "stateMutability": "nonpayable",
      "type": "function"
    },
    {
      "inputs": [
        {
          "internalType": "address",
          "name": "operator",
          "type": "address"
        },
        {
          "internalType": "bool",
          "name": "approved",
          "type": "bool"
        }
      ],
      "name": "setApprovalForAll",
      "outputs": [],
      "stateMutability": "nonpayable",
      "type": "function"
    },
    {
      "inputs": [
        {
          "internalType": "bytes4",
          "name": "interfaceId",
          "type": "bytes4"
        }
      ],
      "name": "supportsInterface",
      "outputs": [
        {
          "internalType": "bool",
          "name": "",
          "type": "bool"
        }
      ],
      "stateMutability": "view",
      "type": "function"
    },
    {
      "inputs": [],
      "name": "symbol",
      "outputs": [
        {
          "internalType": "string",
          "name": "",
          "type": "string"
        }
      ],
      "stateMutability": "view",
      "type": "function"
    },
    {
      "inputs": [
        {
          "internalType": "uint256",
          "name": "tokenId",
          "type": "uint256"
        }
      ],
      "name": "tokenURI",
      "outputs": [
        {
          "internalType": "string",
          "name": "",
          "type": "string"
        }
      ],
      "stateMutability": "view",
      "type": "function"
    },
    {
      "inputs": [
        {
          "internalType": "address",
          "name": "from",
          "type": "address"
        },
        {
          "internalType": "address",
          "name": "to",
          "type": "address"
        },
        {
          "internalType": "uint256",
          "name": "tokenId",
          "type": "uint256"
        }
      ],
      "name": "transferFrom",
      "outputs": [],
      "stateMutability": "nonpayable",
      "type": "function"
    }
  ],
  "bytecode": "0x60806040523480156200001157600080fd5b506040518060400160405280601381526020017f4c4d53204365727469666963617465204e46540000000000000000000000000081525060405180604001604052806007815260200166131354d0d3919560ca1b815250816000908162000079919062000148565b50600162000088828262000148565b5050600780546001600160a01b031916331790555062000214565b634e487b7160e01b600052604160045260246000fd5b600181811c90821680620000ce57607f821691505b602082108103620000ef57634e487b7160e01b600052602260045260246000fd5b50919050565b601f8211156200014357600081815260208120601f850160051c810160208610156200011e5750805b601f850160051c820191505b818110156200013f578281556001016200012a565b5050505b505050565b81516001600160401b03811115620001645762000164620000a3565b6200017c81620001758454620000b9565b84620000f5565b602080601f831160018114620001b457600084156200019b5750858301515b600019600386901b1c1916600185901b1785556200013f565b600085815260208120601f198616915b82811015620001e557888601518255948401946001909101908401620001c4565b5085821015620002045787850151600019600388901b60f8161c191681555b5050505050600190811b01905550565b61134c80620002246000396000f3fe608060405234801561001057600080fd5b50600436106101005760003560e01c806370a0823111610097578063b88d4fde11610066578063b88d4fde14610213578063c87b56dd14610226578063e985e9c514610239578063f851a4401461024c57600080fd5b806370a08231146101dc57806375794a3c146101ef57806395d89b41146101f8578063a22cb4651461020057600080fd5b8063095ea7b3116100d3578063095ea7b31461018e57806323b872dd146101a357806342842e0e146101b65780636352211e146101c957600080fd5b806301ffc9a71461010557806306fdde031461012d5780630712249f14610142578063081812fc14610163575b600080fd5b610118610113366004610e17565b61025f565b60405190151581526020015b60405180910390f35b61013561028a565b6040516101249190610e84565b610155610150366004610f3f565b61031c565b604051908152602001610124565b610176610171366004610fa1565b61039d565b6040516001600160a01b039091168152602001610124565b6101a161019c366004610fba565b6103c6565b005b6101a16101b1366004610fe4565b6103d5565b6101a16101c4366004610fe4565b610460565b6101766101d7366004610fa1565b610480565b6101556101ea366004611020565b61048b565b61015560085481565b6101356104d3565b6101a161020e36600461103b565b6104e2565b6101a1610221366004611077565b6104ed565b610135610234366004610fa1565b610505565b6101186102473660046110f3565b610616565b600754610176906001600160a01b031681565b60006001600160e01b03198216632483248360e11b1480610284575061028482610644565b92915050565b60606000805461029990611126565b80601f01602080910402602001604051908101604052809291908181526020018280546102c590611126565b80156103125780601f106102e757610100808354040283529160200191610312565b820191906000526020600020905b8154815290600101906020018083116102f557829003601f168201915b5050505050905090565b6007546000906001600160a01b0316331461036b5760405162461bcd60e51b815260206004820152600a60248201526941646d696e206f6e6c7960b01b60448201526064015b60405180910390fd5b600880546000918261037c83611160565b91905055905061038c8482610694565b61039681846106f9565b9392505050565b60006103a882610749565b506000828152600460205260409020546001600160a01b0316610284565b6103d1828233610782565b5050565b6001600160a01b0382166103ff57604051633250574960e11b815260006004820152602401610362565b600061040c83833361078f565b9050836001600160a01b0316816001600160a01b03161461045a576040516364283d7b60e01b81526001600160a01b0380861660048301526024820184905282166044820152606401610362565b50505050565b61047b838383604051806020016040528060008152506104ed565b505050565b600061028482610749565b60006001600160a01b0382166104b7576040516322718ad960e21b815260006004820152602401610362565b506001600160a01b031660009081526003602052604090205490565b60606001805461029990611126565b6103d1338383610888565b6104f88484846103d5565b61045a3385858585610927565b606061051082610749565b506000828152600660205260408120805461052a90611126565b80601f016020809104026020016040519081016040528092919081815260200182805461055690611126565b80156105a35780601f10610578576101008083540402835291602001916105a3565b820191906000526020600020905b81548152906001019060200180831161058657829003601f168201915b5050505050905060006105c160408051602081019091526000815290565b905080516000036105d3575092915050565b8151156106055780826040516020016105ed929190611187565b60405160208183030381529060405292505050919050565b61060e84610a52565b949350505050565b6001600160a01b03918216600090815260056020908152604080832093909416825291909152205460ff1690565b60006001600160e01b031982166380ac58cd60e01b148061067557506001600160e01b03198216635b5e139f60e01b145b8061028457506301ffc9a760e01b6001600160e01b0319831614610284565b6001600160a01b0382166106be57604051633250574960e11b815260006004820152602401610362565b60006106cc8383600061078f565b90506001600160a01b0381161561047b576040516339e3563760e11b815260006004820152602401610362565b600082815260066020526040902061071182826111fc565b506040518281527ff8e1a15aba9398e019f0b49df1a4fde98ee17ae345cb5f6b5e2c27f5033e8ce79060200160405180910390a15050565b6000818152600260205260408120546001600160a01b03168061028457604051637e27328960e01b815260048101849052602401610362565b61047b8383836001610ac6565b6000828152600260205260408120546001600160a01b03908116908316156107bc576107bc818486610bcc565b6001600160a01b038116156107fa576107d9600085600080610ac6565b6001600160a01b038116600090815260036020526040902080546000190190555b6001600160a01b03851615610829576001600160a01b0385166000908152600360205260409020805460010190555b60008481526002602052604080822080546001600160a01b0319166001600160a01b0389811691821790925591518793918516917fddf252ad1be2c89b69c2b068fc378daa952ba7f163c4a11628f55a4df523b3ef91a4949350505050565b6001600160a01b0382166108ba57604051630b61174360e31b81526001600160a01b0383166004820152602401610362565b6001600160a01b03838116600081815260056020908152604080832094871680845294825291829020805460ff191686151590811790915591519182527f17307eab39ab6107e8899845ad3d59bd9653f200f220920489ca2b5937696c31910160405180910390a3505050565b6001600160a01b0383163b15610a4b57604051630a85bd0160e11b81526001600160a01b0384169063150b7a02906109699088908890879087906004016112bc565b6020604051808303816000875af19250505080156109a4575060408051601f3d908101601f191682019092526109a1918101906112f9565b60015b610a0d573d8080156109d2576040519150601f19603f3d011682016040523d82523d6000602084013e6109d7565b606091505b508051600003610a0557604051633250574960e11b81526001600160a01b0385166004820152602401610362565b805160208201fd5b6001600160e01b03198116630a85bd0160e11b14610a4957604051633250574960e11b81526001600160a01b0385166004820152602401610362565b505b5050505050565b6060610a5d82610749565b506000610a7560408051602081019091526000815290565b90506000815111610a955760405180602001604052806000815250610396565b80610a9f84610c30565b604051602001610ab0929190611187565b6040516020818303038152906040529392505050565b8080610ada57506001600160a01b03821615155b15610b9c576000610aea84610749565b90506001600160a01b03831615801590610b165750826001600160a01b0316816001600160a01b031614155b8015610b295750610b278184610616565b155b15610b525760405163a9fbf51f60e01b81526001600160a01b0384166004820152602401610362565b8115610b9a5783856001600160a01b0316826001600160a01b03167f8c5be1e5ebec7d5bd14f71427d1e84f3dd0314c0f7b2291e5b200ac8c7c3b92560405160405180910390a45b505b5050600090815260046020526040902080546001600160a01b0319166001600160a01b0392909216919091179055565b610bd7838383610cc3565b61047b576001600160a01b038316610c0557604051637e27328960e01b815260048101829052602401610362565b60405163177e802f60e01b81526001600160a01b038316600482015260248101829052604401610362565b60606000610c3d83610d26565b600101905060008167ffffffffffffffff811115610c5d57610c5d610eb3565b6040519080825280601f01601f191660200182016040528015610c87576020820181803683370190505b5090508181016020015b600019016f181899199a1a9b1b9c1cb0b131b232b360811b600a86061a8153600a8504945084610c9157509392505050565b60006001600160a01b0383161580159061060e5750826001600160a01b0316846001600160a01b03161480610cfd5750610cfd8484610616565b8061060e5750506000908152600460205260409020546001600160a01b03908116911614919050565b60008072184f03e93ff9f4daa797ed6e38ed64bf6a1f0160401b8310610d655772184f03e93ff9f4daa797ed6e38ed64bf6a1f0160401b830492506040015b6d04ee2d6d415b85acef81000000008310610d91576d04ee2d6d415b85acef8100000000830492506020015b662386f26fc100008310610daf57662386f26fc10000830492506010015b6305f5e1008310610dc7576305f5e100830492506008015b6127108310610ddb57612710830492506004015b60648310610ded576064830492506002015b600a83106102845760010192915050565b6001600160e01b031981168114610e1457600080fd5b50565b600060208284031215610e2957600080fd5b813561039681610dfe565b60005b83811015610e4f578181015183820152602001610e37565b50506000910152565b60008151808452610e70816020860160208601610e34565b601f01601f19169290920160200192915050565b6020815260006103966020830184610e58565b80356001600160a01b0381168114610eae57600080fd5b919050565b634e487b7160e01b600052604160045260246000fd5b600067ffffffffffffffff80841115610ee457610ee4610eb3565b604051601f8501601f19908116603f01168101908282118183101715610f0c57610f0c610eb3565b81604052809350858152868686011115610f2557600080fd5b858560208301376000602087830101525050509392505050565b60008060408385031215610f5257600080fd5b610f5b83610e97565b9150602083013567ffffffffffffffff811115610f7757600080fd5b8301601f81018513610f8857600080fd5b610f9785823560208401610ec9565b9150509250929050565b600060208284031215610fb357600080fd5b5035919050565b60008060408385031215610fcd57600080fd5b610fd683610e97565b946020939093013593505050565b600080600060608486031215610ff957600080fd5b61100284610e97565b925061101060208501610e97565b9150604084013590509250925092565b60006020828403121561103257600080fd5b61039682610e97565b6000806040838503121561104e57600080fd5b61105783610e97565b91506020830135801515811461106c57600080fd5b809150509250929050565b6000806000806080858703121561108d57600080fd5b61109685610e97565b93506110a460208601610e97565b925060408501359150606085013567ffffffffffffffff8111156110c757600080fd5b8501601f810187136110d857600080fd5b6110e787823560208401610ec9565b91505092959194509250565b6000806040838503121561110657600080fd5b61110f83610e97565b915061111d60208401610e97565b90509250929050565b600181811c9082168061113a57607f821691505b60208210810361115a57634e487b7160e01b600052602260045260246000fd5b50919050565b60006001820161118057634e487b7160e01b600052601160045260246000fd5b5060010190565b60008351611199818460208801610e34565b8351908301906111ad818360208801610e34565b01949350505050565b601f82111561047b57600081815260208120601f850160051c810160208610156111dd5750805b601f850160051c820191505b81811015610a49578281556001016111e9565b815167ffffffffffffffff81111561121657611216610eb3565b61122a816112248454611126565b846111b6565b602080601f83116001811461125f57600084156112475750858301515b600019600386901b1c1916600185901b178555610a49565b600085815260208120601f198616915b8281101561128e5788860151825594840194600190910190840161126f565b50858210156112ac5787850151600019600388901b60f8161c191681555b5050505050600190811b01905550565b6001600160a01b03858116825284166020820152604081018390526080606082018190526000906112ef90830184610e58565b9695505050505050565b60006020828403121561130b57600080fd5b815161039681610dfe56fea2646970667358221220df626b7c09e4df3afad794aabab0e9dd2712c47ee3f8e6109a9b95c7bae7781b64736f6c63430008140033",
  "linkReferences": {},
  "deployedLinkReferences": {}
}