{
  "_format": "hh-sol-artifact-1",
  "contractName": "AP2",
  "sourceName": "contracts/AP2.sol",
  "abi": [
    {
      "inputs": [],
      "stateMutability": "nonpayable",
      "type": "constructor"
    },
    {
      "inputs": [
        {
          "internalType": "address",
          "name": "owner",
          "type": "address"
        }
      ],
      "name": "OwnableInvalidOwner",
      "type": "error"
    },
    {
      "inputs": [
        {
          "internalType": "address",
          "name": "account",
          "type": "address"
        }
      ],
      "name": "OwnableUnauthorizedAccount",
      "type": "error"
    },
    {
      "anonymous": false,
      "inputs": [
        {
          "indexed": true,
          "internalType": "address",
          "name": "agent",
          "type": "address"
        }
      ],
      "name": "AgentRegistered",
      "type": "event"
    },
    {
      "anonymous": false,
      "inputs": [
        {
          "indexed": true,
          "internalType": "address",
          "name": "agent",
          "type": "address"
        }
      ],
      "name": "AgentUnregistered",
      "type": "event"
    },
    {
      "anonymous": false,
      "inputs": [
        {
          "indexed": true,
          "internalType": "address",
          "name": "previousOwner",
          "type": "address"
        },
        {
          "indexed": true,
          "internalType": "address",
          "name": "newOwner",
          "type": "address"
        }
      ],
      "name": "OwnershipTransferred",
      "type": "event"
    },
    {
      "anonymous": false,
      "inputs": [
        {
          "indexed": true,
          "internalType": "uint256",
          "name": "purchaseId",
          "type": "uint256"
        },
        {
          "indexed": true,
          "internalType": "address",
          "name": "agent",
          "type": "address"
        },
        {
          "indexed": true,
          "internalType": "address",
          "name": "recipient",
          "type": "address"
        },
        {
          "indexed": false,
          "internalType": "uint256",
          "name": "amount",
          "type": "uint256"
        }
      ],
      "name": "PurchaseExecuted",
      "type": "event"
    },
    {
      "anonymous": false,
      "inputs": [
        {
          "indexed": true,
          "internalType": "uint256",
          "name": "purchaseId",
          "type": "uint256"
        },
        {
          "indexed": true,
          "internalType": "address",
          "name": "buyer",
          "type": "address"
        },
        {
          "indexed": false,
          "internalType": "uint256",
          "name": "amount",
          "type": "uint256"
        },
        {
          "indexed": false,
          "internalType": "uint256",
          "name": "courseId",
          "type": "uint256"
        }
      ],
      "name": "PurchaseInitiated",
      "type": "event"
    },
    {
      "inputs": [
        {
          "internalType": "address",
          "name": "",
          "type": "address"
        }
      ],
      "name": "agents",
      "outputs": [
        {
          "internalType": "bool",
          "name": "",
          "type": "bool"
        }
      ],
      "stateMutability": "view",
      "type": "function"
    },
    {
      "inputs": [
        {
          "internalType": "uint256",
          "name": "purchaseId",
          "type": "uint256"
        }
      ],
      "name": "emergencyWithdraw",
      "outputs": [],
      "stateMutability": "nonpayable",
      "type": "function"
    },
    {
      "inputs": [
        {
          "internalType": "uint256",
          "name": "purchaseId",
          "type": "uint256"
        }
      ],
      "name": "executePurchase",
      "outputs": [],
      "stateMutability": "nonpayable",
      "type": "function"
    },
    {
      "inputs": [
        {
          "internalType": "uint256",
          "name": "purchaseId",
          "type": "uint256"
        },
        {
          "internalType": "address",
          "name": "token",
          "type": "address"
        },
        {
          "internalType": "uint256",
          "name": "amount",
          "type": "uint256"
        },
        {
          "internalType": "address",
          "name": "recipient",
          "type": "address"
        },
        {
          "internalType": "uint256",
          "name": "courseId",
          "type": "uint256"
        }
      ],
      "name": "initiatePurchase",
      "outputs": [],
      "stateMutability": "nonpayable",
      "type": "function"
    },
    {
      "inputs": [],
      "name": "owner",
      "outputs": [
        {
          "internalType": "address",
          "name": "",
          "type": "address"
        }
      ],
      "stateMutability": "view",
      "type": "function"
    },
    {
      "inputs": [
        {
          "internalType": "uint256",
          "name": "",
          "type": "uint256"
        }
      ],
      "name": "purchases",
      "outputs": [
        {
          "internalType": "address",
          "name": "buyer",
          "type": "address"
        },
        {
          "internalType": "address",
          "name": "token",
          "type": "address"
        },
        {
          "internalType": "uint256",
          "name": "amount",
          "type": "uint256"
        },
        {
          "internalType": "address",
          "name": "recipient",
          "type": "address"
        },
        {
          "internalType": "uint256",
          "name": "courseId",
          "type": "uint256"
        },
        {
          "internalType": "bool",
          "name": "executed",
          "type": "bool"
        },
        {
          "internalType": "uint256",
          "name": "createdAt",
          "type": "uint256"
        }
      ],
      "stateMutability": "view",
      "type": "function"
    },
    {
      "inputs": [
        {
          "internalType": "address",
          "name": "agent",
          "type": "address"
        }
      ],
      "name": "registerAgent",
      "outputs": [],
      "stateMutability": "nonpayable",
      "type": "function"
    },
    {
      "inputs": [],
      "name": "renounceOwnership",
      "outputs": [],
      "stateMutability": "nonpayable",
      "type": "function"
    },
    {
      "inputs": [
        {
          "internalType": "address",
          "name": "newOwner",
          "type": "address"
        }
      ],
      "name": "transferOwnership",
      "outputs": [],
      "stateMutability": "nonpayable",
      "type": "function"
    },
    {
      "inputs": [
        {
          "internalType": "address",
          "name": "agent",
          "type": "address"
        }
      ],
      "name": "unregisterAgent",
      "outputs": [],
      "stateMutability": "nonpayable",
      "type": "function"
    }
  ],
  "bytecode": "0x608060405234801561001057600080fd5b5033600073ffffffffffffffffffffffffffffffffffffffff168173ffffffffffffffffffffffffffffffffffffffff16036100845760006040517f1e4fbdf700000000000000000000000000000000000000000000000000000000815260040161007b919061019e565b60405180910390fd5b6100938161009960201b60201c565b506101b9565b60008060009054906101000a900473ffffffffffffffffffffffffffffffffffffffff169050816000806101000a81548173ffffffffffffffffffffffffffffffffffffffff021916908373ffffffffffffffffffffffffffffffffffffffff1602179055508173ffffffffffffffffffffffffffffffffffffffff168173ffffffffffffffffffffffffffffffffffffffff167f8be0079c531659141344cd1fd0a4f28419497f9722a3daafe3b4186f6b6457e060405160405180910390a35050565b600073ffffffffffffffffffffffffffffffffffffffff82169050919050565b60006101888261015d565b9050919050565b6101988161017d565b82525050565b60006020820190506101b3600083018461018f565b92915050565b611809806101c86000396000f3fe608060405234801561001057600080fd5b506004361061009e5760003560e01c8063715018a611610066578063715018a61461012f5780638392fe31146101395780638da5cb5b1461016f578063f2fde38b1461018d578063fd66091e146101a95761009e565b80632812e57a146100a3578063306b9bb9146100bf5780633826b9bc146100db57806342d0b85e146100f75780635312ea8e14610113575b600080fd5b6100bd60048036038101906100b89190611051565b6101d9565b005b6100d960048036038101906100d491906110cc565b61057f565b005b6100f560048036038101906100f091906110cc565b610625565b005b610111600480360381019061010c91906110f9565b6106cb565b005b61012d600480360381019061012891906110f9565b610a58565b005b610137610cd3565b005b610153600480360381019061014e91906110f9565b610ce7565b604051610166979695949392919061115f565b60405180910390f35b610177610d96565b60405161018491906111ce565b60405180910390f35b6101a760048036038101906101a291906110cc565b610dbf565b005b6101c360048036038101906101be91906110cc565b610e45565b6040516101d091906111e9565b60405180910390f35b600073ffffffffffffffffffffffffffffffffffffffff166001600087815260200190815260200160002060000160009054906101000a900473ffffffffffffffffffffffffffffffffffffffff1673ffffffffffffffffffffffffffffffffffffffff161461027e576040517f08c379a000000000000000000000000000000000000000000000000000000000815260040161027590611261565b60405180910390fd5b600083116102c1576040517f08c379a00000000000000000000000000000000000000000000000000000000081526004016102b8906112cd565b60405180910390fd5b60008473ffffffffffffffffffffffffffffffffffffffff166323b872dd3330876040518463ffffffff1660e01b8152600401610300939291906112ed565b6020604051808303816000875af115801561031f573d6000803e3d6000fd5b505050506040513d601f19601f820116820180604052508101906103439190611350565b905080610385576040517f08c379a000000000000000000000000000000000000000000000000000000000815260040161037c906113c9565b60405180910390fd5b6040518060e001604052803373ffffffffffffffffffffffffffffffffffffffff1681526020018673ffffffffffffffffffffffffffffffffffffffff1681526020018581526020018473ffffffffffffffffffffffffffffffffffffffff168152602001838152602001600015158152602001428152506001600088815260200190815260200160002060008201518160000160006101000a81548173ffffffffffffffffffffffffffffffffffffffff021916908373ffffffffffffffffffffffffffffffffffffffff16021790555060208201518160010160006101000a81548173ffffffffffffffffffffffffffffffffffffffff021916908373ffffffffffffffffffffffffffffffffffffffff1602179055506040820151816002015560608201518160030160006101000a81548173ffffffffffffffffffffffffffffffffffffffff021916908373ffffffffffffffffffffffffffffffffffffffff1602179055506080820151816004015560a08201518160050160006101000a81548160ff02191690831515021790555060c082015181600601559050503373ffffffffffffffffffffffffffffffffffffffff16867febc4bdc648553c9d41845dd430429393cd0689eafc9dd4a81ec3ac433d16ff46868560405161056f9291906113e9565b60405180910390a3505050505050565b610587610e65565b6001600260008373ffffffffffffffffffffffffffffffffffffffff1673ffffffffffffffffffffffffffffffffffffffff16815260200190815260200160002060006101000a81548160ff0219169083151502179055508073ffffffffffffffffffffffffffffffffffffffff167f82d0829d9d481e4cb9913897f9b9c903271c4db68c7b3324071d2a7e3b2c5ff060405160405180910390a250565b61062d610e65565b6000600260008373ffffffffffffffffffffffffffffffffffffffff1673ffffffffffffffffffffffffffffffffffffffff16815260200190815260200160002060006101000a81548160ff0219169083151502179055508073ffffffffffffffffffffffffffffffffffffffff167f3e085cc53b86c19e2e6dba628297af6b8f76c89d1384dbcc599bab2adfd62d0860405160405180910390a250565b600260003373ffffffffffffffffffffffffffffffffffffffff1673ffffffffffffffffffffffffffffffffffffffff16815260200190815260200160002060009054906101000a900460ff16610757576040517f08c379a000000000000000000000000000000000000000000000000000000000815260040161074e9061145e565b60405180910390fd5b6000600160008381526020019081526020016000209050600073ffffffffffffffffffffffffffffffffffffffff168160000160009054906101000a900473ffffffffffffffffffffffffffffffffffffffff1673ffffffffffffffffffffffffffffffffffffffff1603610801576040517f08c379a00000000000000000000000000000000000000000000000000000000081526004016107f8906114ca565b60405180910390fd5b8060050160009054906101000a900460ff1615610853576040517f08c379a000000000000000000000000000000000000000000000000000000000815260040161084a90611536565b60405180910390fd5b600081600201541161089a576040517f08c379a0000000000000000000000000000000000000000000000000000000008152600401610891906115a2565b60405180910390fd5b60018160050160006101000a81548160ff02191690831515021790555060008160010160009054906101000a900473ffffffffffffffffffffffffffffffffffffffff1673ffffffffffffffffffffffffffffffffffffffff1663a9059cbb8360030160009054906101000a900473ffffffffffffffffffffffffffffffffffffffff1684600201546040518363ffffffff1660e01b81526004016109409291906115c2565b6020604051808303816000875af115801561095f573d6000803e3d6000fd5b505050506040513d601f19601f820116820180604052508101906109839190611350565b9050806109c5576040517f08c379a00000000000000000000000000000000000000000000000000000000081526004016109bc9061165d565b60405180910390fd5b8160030160009054906101000a900473ffffffffffffffffffffffffffffffffffffffff1673ffffffffffffffffffffffffffffffffffffffff163373ffffffffffffffffffffffffffffffffffffffff16847f5af1bfe77d7fe0d2803a709c9fee9950632b24844ab65777cb63404e28b8dd938560020154604051610a4b919061167d565b60405180910390a4505050565b610a60610e65565b6000600160008381526020019081526020016000209050600073ffffffffffffffffffffffffffffffffffffffff168160000160009054906101000a900473ffffffffffffffffffffffffffffffffffffffff1673ffffffffffffffffffffffffffffffffffffffff1603610b0a576040517f08c379a0000000000000000000000000000000000000000000000000000000008152600401610b01906114ca565b60405180910390fd5b8060050160009054906101000a900460ff1615610b5c576040517f08c379a0000000000000000000000000000000000000000000000000000000008152600401610b5390611536565b60405180910390fd5b62278d008160060154610b6f91906116c7565b4211610bb0576040517f08c379a0000000000000000000000000000000000000000000000000000000008152600401610ba790611747565b60405180910390fd5b6000816002015490506000826002018190555060018260050160006101000a81548160ff02191690831515021790555060008260010160009054906101000a900473ffffffffffffffffffffffffffffffffffffffff1673ffffffffffffffffffffffffffffffffffffffff1663a9059cbb610c2a610d96565b846040518363ffffffff1660e01b8152600401610c489291906115c2565b6020604051808303816000875af1158015610c67573d6000803e3d6000fd5b505050506040513d601f19601f82011682018060405250810190610c8b9190611350565b905080610ccd576040517f08c379a0000000000000000000000000000000000000000000000000000000008152600401610cc4906117b3565b60405180910390fd5b50505050565b610cdb610e65565b610ce56000610eec565b565b60016020528060005260406000206000915090508060000160009054906101000a900473ffffffffffffffffffffffffffffffffffffffff16908060010160009054906101000a900473ffffffffffffffffffffffffffffffffffffffff16908060020154908060030160009054906101000a900473ffffffffffffffffffffffffffffffffffffffff16908060040154908060050160009054906101000a900460ff16908060060154905087565b60008060009054906101000a900473ffffffffffffffffffffffffffffffffffffffff16905090565b610dc7610e65565b600073ffffffffffffffffffffffffffffffffffffffff168173ffffffffffffffffffffffffffffffffffffffff1603610e395760006040517f1e4fbdf7000000000000000000000000000000000000000000000000000000008152600401610e3091906111ce565b60405180910390fd5b610e4281610eec565b50565b60026020528060005260406000206000915054906101000a900460ff1681565b610e6d610fb0565b73ffffffffffffffffffffffffffffffffffffffff16610e8b610d96565b73ffffffffffffffffffffffffffffffffffffffff1614610eea57610eae610fb0565b6040517f118cdaa7000000000000000000000000000000000000000000000000000000008152600401610ee191906111ce565b60405180910390fd5b565b60008060009054906101000a900473ffffffffffffffffffffffffffffffffffffffff169050816000806101000a81548173ffffffffffffffffffffffffffffffffffffffff021916908373ffffffffffffffffffffffffffffffffffffffff1602179055508173ffffffffffffffffffffffffffffffffffffffff168173ffffffffffffffffffffffffffffffffffffffff167f8be0079c531659141344cd1fd0a4f28419497f9722a3daafe3b4186f6b6457e060405160405180910390a35050565b600033905090565b600080fd5b6000819050919050565b610fd081610fbd565b8114610fdb57600080fd5b50565b600081359050610fed81610fc7565b92915050565b600073ffffffffffffffffffffffffffffffffffffffff82169050919050565b600061101e82610ff3565b9050919050565b61102e81611013565b811461103957600080fd5b50565b60008135905061104b81611025565b92915050565b600080600080600060a0868803121561106d5761106c610fb8565b5b600061107b88828901610fde565b955050602061108c8882890161103c565b945050604061109d88828901610fde565b93505060606110ae8882890161103c565b92505060806110bf88828901610fde565b9150509295509295909350565b6000602082840312156110e2576110e1610fb8565b5b60006110f08482850161103c565b91505092915050565b60006020828403121561110f5761110e610fb8565b5b600061111d84828501610fde565b91505092915050565b61112f81611013565b82525050565b61113e81610fbd565b82525050565b60008115159050919050565b61115981611144565b82525050565b600060e082019050611174600083018a611126565b6111816020830189611126565b61118e6040830188611135565b61119b6060830187611126565b6111a86080830186611135565b6111b560a0830185611150565b6111c260c0830184611135565b98975050505050505050565b60006020820190506111e36000830184611126565b92915050565b60006020820190506111fe6000830184611150565b92915050565b600082825260208201905092915050565b7f507572636861736520616c726561647920657869737473000000000000000000600082015250565b600061124b601783611204565b915061125682611215565b602082019050919050565b6000602082019050818103600083015261127a8161123e565b9050919050565b7f416d6f756e74206d757374206265203e20300000000000000000000000000000600082015250565b60006112b7601283611204565b91506112c282611281565b602082019050919050565b600060208201905081810360008301526112e6816112aa565b9050919050565b60006060820190506113026000830186611126565b61130f6020830185611126565b61131c6040830184611135565b949350505050565b61132d81611144565b811461133857600080fd5b50565b60008151905061134a81611324565b92915050565b60006020828403121561136657611365610fb8565b5b60006113748482850161133b565b91505092915050565b7f546f6b656e207472616e73666572206661696c65640000000000000000000000600082015250565b60006113b3601583611204565b91506113be8261137d565b602082019050919050565b600060208201905081810360008301526113e2816113a6565b9050919050565b60006040820190506113fe6000830185611135565b61140b6020830184611135565b9392505050565b7f4e6f7420616e20617574686f72697a6564206167656e74000000000000000000600082015250565b6000611448601783611204565b915061145382611412565b602082019050919050565b600060208201905081810360008301526114778161143b565b9050919050565b7f5075726368617365206e6f7420666f756e640000000000000000000000000000600082015250565b60006114b4601283611204565b91506114bf8261147e565b602082019050919050565b600060208201905081810360008301526114e3816114a7565b9050919050565b7f416c726561647920657865637574656400000000000000000000000000000000600082015250565b6000611520601083611204565b915061152b826114ea565b602082019050919050565b6000602082019050818103600083015261154f81611513565b9050919050565b7f4e6f7468696e6720746f207472616e7366657200000000000000000000000000600082015250565b600061158c601383611204565b915061159782611556565b602082019050919050565b600060208201905081810360008301526115bb8161157f565b9050919050565b60006040820190506115d76000830185611126565b6115e46020830184611135565b9392505050565b7f546f6b656e207472616e7366657220746f20726563697069656e74206661696c60008201527f6564000000000000000000000000000000000000000000000000000000000000602082015250565b6000611647602283611204565b9150611652826115eb565b604082019050919050565b600060208201905081810360008301526116768161163a565b9050919050565b60006020820190506116926000830184611135565b92915050565b7f4e487b7100000000000000000000000000000000000000000000000000000000600052601160045260246000fd5b60006116d282610fbd565b91506116dd83610fbd565b92508282019050808211156116f5576116f4611698565b5b92915050565b7f546f6f206561726c7920666f7220656d657267656e6379207769746864726177600082015250565b6000611731602083611204565b915061173c826116fb565b602082019050919050565b6000602082019050818103600083015261176081611724565b9050919050565b7f456d657267656e6379207472616e73666572206661696c656400000000000000600082015250565b600061179d601983611204565b91506117a882611767565b602082019050919050565b600060208201905081810360008301526117cc81611790565b905091905056fea2646970667358221220924459fbf772694e0d00b51ec020a4594b4a577db2e0fae57a14ce99bcdca91864736f6c634300081c0033",
  "linkReferences": {},
  "deployedLinkReferences": {}
}